:020000040800F2
:10000000404800209D0100088F4E000889470008E5
:100010008D4E0008251100088959000800000000D5
:100020000000000000000000000000006D52000809
:10003000F912000800000000B14E000865530008E6
:10004000B7010008B7010008B701000861520008B5
:10005000B7010008B7010008B7010008B7010008A0
:10006000B7010008B7010008B701000871110008C6
:10007000B7010008B7010008B70100087D110008AA
:1000800089110008B7010008B7010008B70100088E
:10009000B7010008B7010008B7010008B701000860
:1000A000B7010008B7010008B7010008B701000850
:1000B000B7010008B7010008B7010008B701000840
:1000C000B7010008B7010008B7010008B701000830
:1000D000B7010008715900087D590008B7010008F0
:1000E000FB120008B7010008B7010008B7010008BB
:1000F000B7010008B7010008B7010008B701000800
:10010000B7010008B7010008B7010008B7010008EF
:10011000B7010008B7010008B7010008B7010008DF
:10012000B7010008B7010008B7010008B7010008CF
:10013000B7010008B7010008B7010008B7010008BF
:10014000B7010008B7010008B7010008B7010008AF
:10015000B7010008B7010008B7010008B70100089F
:10016000B7010008B7010008B7010008B70100088F
:10017000B7010008B70100080000000000000000FF
:10018000B7010008B7010008DFF80CD000F06CFBE5
:1001900000480047E19B000840480020064880478F
:1001A00006480047FEE7FEE7FEE7FEE7FEE7FEE75C
:1001B000FEE7FEE7FEE7FEE70D54000889010008B0
:1001C0002DE9F05F0546002092469B46884606468C
:1001D000814640241BE0284641464746224600F01F
:1001E0008CFA53465A46C01A914110D3114618460C
:1001F000224600F073FA2D1A67EB01084F4622469B
:100200000120002100F06AFA17EB00094E41201E80
:10021000A4F10104DFDC484631462A46434600F09B
:1002200000B830BCBDE8C09FD2B201E000F8012B9D
:10023000491EFBD270470022F6E710B513460A4666
:1002400004461946FFF7F0FF204610BD2DE9FE4F8A
:10025000804681EA0300C00F0C46009021F0004167
:1002600023F00045B8EB0200A94105D240462146E3
:1002700090461C460B46024623F00040104347D0F0
:10028000270DC7F30A00C3F30A510290401A0190E8
:1002900040286BDAC3F3130040F4801B00989246A9
:1002A00020B10023D2EB030A63EB0B0B01985946F4
:1002B000C0F14002504600F011FA06460D46504685
:1002C0005946019A00F029FA10EB08006141002418
:1002D00087EA115284EAE7731A4340D0009A62B366
:1002E000019A012A4FEA075215DC001B61EB02015B
:1002F0004FF0004202EA0752CDE90042001C41F5EE
:10030000801132462B4600F060FA03B000F045B889
:1003100040462146F9E7001B61EB0201001C41F554
:10032000801300185B412018A2F5001747EB03016A
:1003300040EAD570B6196D4111E06D084FEA3606F6
:1003400045EAC0754FEA0752001B61EB0201001C31
:1003500041F5801149084FEA3000001951413246F9
:100360002B4603B000F01CB800F020BA0098012220
:1003700040000023D0EB020263EBE07300982146BB
:100380004FEAE074B8EB000061EB0401E9E783F0A9
:1003900000435BE781F0004158E730BCBDE8C08F07
:1003A00030BCBDE8C04FFFF7DFBF2DE9FE4F81EA4B
:1003B000030404F0004421F0004100944FF0000BCE
:1003C00023F0004350EA01045ED052EA03045BD0FC
:1003D000C3F30A54C1F30A552C44A4F2F334019434
:1003E000A0FB0254C1F3130141F48011C3F31303C2
:1003F00043F4801301FB024400FB034E840A970A76
:1004000044EA815447EA8357A4FB076802958D0AA2
:1004100005FB07854FEA932C04FB0C542705029D2E
:100420004FEA065847EA1637B5EB08056EEB070C9E
:10043000870E920E47EA811742EA8312A7FB020158
:10044000B6EB0B0164EB00042B0D43EA0C335E1892
:1004500044EB1C50DA465146E7FB0201C5F3130496
:100460004FEA0B3343EA14534FEA0432019C43EA48
:100470000603A4F10C040294009CCDE900B400F042
:10048000A4F903B000F003B800200146F9E730BC3E
:10049000BDE8C08F2DE9F04D81EA030404F0004B64
:1004A00021F0004514464FF0000A23F0004150EAC5
:1004B000050220D054EA01021DD0C5F30A570246B6
:1004C000C5F31303C1F31300C1F30A5640F48015BA
:1004D00043F48013A7EB0608101BD64608F2FD383C
:1004E00073EB050002D308F1010801E092185B41AB
:1004F000B8F1000F03DA00200146BDE8F08D0020BE
:100500004FF48011064684460EE0171B73EB050777
:1005100005D3121B63EB050306434CEA010C4908A3
:100520004FEA300092185B4150EA0107EDD152EAE0
:10053000030012D082EA040083EA0501084305D0D3
:10054000101BAB4106D20122002306E000224FF02F
:10055000004302E06FF0010253101AEB06004CEB6F
:10056000085110EB0A0041EB0B01BDE8F04D00F023
:100570001DB90EB5C10F80EAE0700844CA0700211A
:1005800040F233438DE80E000A460B4600F01DF999
:1005900003B000BD0EB540F2334102910021CDE918
:1005A00000110A460B4600F010F903B000BD70B50B
:1005B000C1F30A5201F000450024C1F3130140F2D7
:1005C000FF3341F480119A4201DA002070BD40F2FD
:1005D00033439A42A2F2334203DC524200F08DF8D8
:1005E00000E090402C43F1D0404270BDC1F30A526C
:1005F00010B5C1F3130140F2FF3341F480119A4268
:1006000001DA002010BD40F233439A42A2F2334295
:1006100003DC524200F071F810BD904010BD00F0B4
:10062000004230F000400AD0C10D01F56071C0F306
:10063000160042EA0151C2084007114370470020EA
:100640000146704730B5041E71F1000404DB4FF021
:100650000044404264EB0101141E73F1000405DB09
:100660001C464FF00043524263EB04038B4208BF29
:10067000824230BD30B5041E71F1000404DB4FF03E
:100680000044404264EB0101141E73F1000405DBD9
:100690001C464FF00043524263EB0403994208BFEB
:1006A000904230BD01F0004330B421F0004150EAE7
:1006B000010206D00A0DA2F56072C1F31301002AEF
:1006C00002DC30BC00207047440F44EAC104C10082
:1006D000E01830BC00EBC25000F031B8202A04DB37
:1006E000203A00FA02F1002070479140C2F1200345
:1006F00020FA03F3194390407047202A04DB203A84
:1007000021FA02F00021704721FA02F3D040C2F131
:1007100020029140084319467047202A06DBCB1778
:10072000203A41FA02F043EAE07306E041FA02F3AC
:10073000D040C2F120029140084319467047002979
:10074000A8BF7047401C490008BF20F00100704757
:1007500010B4B0FA80FC00FA0CF050EA010404BFB7
:1007600010BC704749B1CCF1200421FA04F411FA0D
:100770000CF118BF012121430843A3EB0C01CB1D51
:100780004FEA00614FEA102042BF002010BC7047C2
:1007900000EBC35010440029A4BF10BC7047401C9C
:1007A000490008BF20F0010010BC704710B5141EAE
:1007B00073F1000408DA401C41F1000192185B411A
:1007C0001A4301D120F0010010BD2DE9F04D9246F1
:1007D0009B4611B1B1FA81F202E0B0FA80F2203208
:1007E0009046FFF77BFF04460F4640EA0A0041EAC5
:1007F0000B0153465A46084313D0114653EA0100F1
:1008000019D0C8F140025046FFF777FF05460E4663
:10081000504659464246FFF761FF084305D0012084
:1008200004E020463946BDE8F08D0020054346EA45
:10083000E0762C4337430A986305E40AA0EB0800EE
:100840000022FD0A44EA47540A3002D5002001463E
:10085000E9E7010510196941DDE908450019694119
:10086000BDE8F04DA2E70000064C074D06E0E06849
:1008700040F0010394E8070098471034AC42F6D3E7
:10088000FFF786FC88840208A884020870B58D18DA
:1008900010F8014B14F0030201D110F8012B2311C1
:1008A00006D110F8013B03E010F8016B01F8016B71
:1008B000521EF9D1ABB110F8012B04F00C048A1AC6
:1008C0000C2C03D0A2EB84129B1C08E010F8014B07
:1008D000A2EB0422F8E712F8014B01F8014B5B1E72
:1008E000F9D5A942D4D3002070BD00002DE9F0470E
:1008F0005E4D002637465E482E6203F059FC5C4888
:1009000003F0AFFC4FF47A74204601F015FE02228A
:10091000A5F12201564803F08DFE554803F073FC03
:1009200009F000FD09F0F8FB524809F061FC1423BE
:10093000052251A14E4803F0CEFEA046A5F1800449
:10094000404601F0F9FDA07C012801D00A2E50D9C3
:10095000474803F02DFC464803F083FC404601F075
:10096000EBFD7E224649424803F064FE404803F016
:100970004AFCA07C01280CD1A77464237E22414943
:100980003B4803F0A8FE0A2302223FA1384803F0A7
:10099000A2FE0026C146484601F0CEFDA07C0128FB
:1009A00001D0782E60D9394A354E00204FF0010829
:1009B000315C2A2901D02B6AA3B12B6A06EB000C0B
:1009C000D1541CF801CCBCF1240F14D094F82DC0E4
:1009D000ACF1300C614484F82D10303184F82E10C5
:1009E0005B1C2B62401C7F28E2DBA07C012819D015
:1009F00008E0761CA4E7286A94F82E10105C884260
:100A00000ED0A774A77419230E2221A1184803F051
:100A100062FE0A2302221CA1154803F05CFE1EE0C0
:100A200084F81280A77419230C221DA1104803F02A
:100A300052FE0A23022214A10D4803F04CFE114974
:100A400084F812800020325C0A54401C7E28FADBB5
:100A500009F068FC09F060FB154809F0C9FB48463D
:100A6000BDE8F04701F068BD761C94E780000020E7
:100A7000F0380020C0C00108535441525400000017
:100A80005C360020283100200A0D0000EA420020D8
:100A9000572043414C2050434B54205245430000C3
:100AA00043414C2050434B5420524543000000002A
:100AB000A0EF01082DE9F041044600270D4600682B
:100AC00003F092FF0646206803F08AFF304359D0B6
:100AD0002068C1682C4E890105D5617E012902D1AB
:100AE000217E01290BD0022D1DD0206803F07CFF50
:100AF000B8B120688168C1F3400169B111E00125F6
:100B0000224902E08F422ED27F1C0268D243520655
:100B1000F8D440210160E8E78168314041F01001DC
:100B20008160012D11D0206803F05AFF48B1206880
:100B30008168C1F3400121B98168314041F0200151
:100B40008160022D08D0032D04D0042501F024FF7C
:100B5000064613E00C25F9E70825F7E701F01CFF2E
:100B6000801B05280AD9606D40F010006065A06DFB
:100B700040F00100A0650120BDE8F0812068806898
:100B80002842EBD10020F7E7C0FFFF7F000040A321
:100B900010B5846A616D11F0500F06D0616DC90601
:100BA00025D5204601F022F910BD606D40F400709B
:100BB000606520680168090716D503F01DFF78B14C
:100BC0002068C068800400280ADB606D20F4807013
:100BD0006065606DC00403D4606D40F00100606525
:100BE000204601F03CF810BDC0688007EBE7E16CDF
:100BF000496BBDE81040084710B5806A416D41F06F
:100C000040014165816D41F00401816501F0EEF81C
:100C100010BD10B5806A01F023F810BD70B5044610
:100C2000006881688268C1F3400112F0010F24D08E
:100C300019BB816801F00D01012910D18168104AAA
:100C40001140891C816021680320086001F0A4FE26
:100C500005460EE001F0A0FE401B022809D9606D98
:100C600040F010006065A06D40F00100A06501201B
:100C700070BD20688068C007ECD1002070BD000006
:100C8000C0FFFF7F70B504460068816811F0010F56
:100C900028D18168144A114215D18168D543294071
:100CA000491C816001F078FE064616E0816811F06B
:100CB000010F03D181682940491C816001F06CFE5D
:100CC000801B022809D9606D40F010006065A06D9E
:100CD00040F00100A065012070BD20680168C94393
:100CE000C907E3D1002070BD3F0000802DE9F05F0F
:100CF0000026DFF8F492BD4CA9F18008C9F8206005
:100D0000354688F8126032468021204601F03EFECA
:100D100001221146B64801F039FE322001F00CFCE8
:100D200001228021204601F031FEC82001F004FCA0
:100D300008F5D8774FF47A743878AA2866D0052356
:100D40000122ACA1AC4803F0C6FC692001F0F4FB21
:100D500005230122A7A1A84803F0BDFC692001F0EA
:100D6000EBFB05230122A3A1A34803F0B4FC6920F7
:100D700001F0E2FB0F230422A0A19F4803F0ABFC8B
:100D8000204601F0D9FB0F2304229EA19A4803F0CC
:100D9000A2FC204601F0D0FB0523012295A1964834
:100DA00003F099FC692001F0C7FB0523012291A102
:100DB000914803F090FC692001F0BEFB052301225D
:100DC0008CA18D4803F087FC692001F0B5FB0F234F
:100DD00006228EA1884803F07EFC204601F0ACFB81
:100DE0000F2306228BA1844803F075FC204601F0F6
:100DF000A3FB0F23042283A17F4803F06CFC204651
:100E000001F09AFBAA20387004F088FE764905228A
:100E10006031794803F00EFC322001F08DFB00F0C8
:100E20000DFBA24647465446504601F085FBB87C70
:100E3000012801D01E2E37D96F4803F0B9F96E484A
:100E400003F00FFA41F2883001F076FB6B22734910
:100E5000694803F0EFFB684803F0D5F9B87C704EA1
:100E6000B846012866D109F05DFA09F055F96D48D8
:100E700009F0BEF988F812504FF4FA6001F05CFBFB
:100E800004F026FA64236A2267495B4803F023FCD6
:100E90000A23022265A1584803F01DFCA246002740
:100EA0004FF4967B444601E0761CBCE7504601F0C7
:100EB00043FBA07C012801D05F4563D9574FA5743F
:100EC00000204FF0010B49463A5C2A2A01D00B6AF8
:100ED000BBB10B6A07EB000CF2541CF801CCBCF15F
:100EE000240F30D094F819C0ACF1300C6244627613
:100EF0003032D2B2A2767F2A01D97F3AA2765B1C29
:100F00000B62401CAA28DFD3C9F82050A07CA5742E
:100F100001284FF0120320D00A2245A1364803F0E1
:100F2000DAFB0A23022241A1334803F0D4FB5046E6
:100F300001F002FBC9F8205098F8120029464446F7
:100F4000012821D03CE0086AA27E305C904201D0AA
:100F5000A574D9E784F812B0D6E7082237A126484D
:100F600003F0B9FB0A23022230A1234803F0B3FBAC
:100F700084F812B009F0D6F909F0CEF8324809F039
:100F800037F9D4E77F1C91E7627E00203032264F8C
:100F900002F0FF0C4FF0300B204B00E00AD216F8A5
:100FA0000080904501D1012115E0012913D007F8F7
:100FB000008035541D54401C6A28EFD9C9F8201010
:100FC000A574504601F0B8FA04F0E0FC00F03EB819
:100FD000154805F023BA692802D007F800B0E8E701
:100FE00087F869C0E5E7000080000020000C004899
:100FF000001C004824000000F038002053462C312B
:101000000D000000522C310D0000000053532C4302
:10101000300D0000532D2C43410D0000DA36002026
:101020008042002000630108C83500200A0D00003E
:10103000572050434B5420524543000050434B54DB
:101040002052454300000000E091010830BCBDE89B
:10105000C05FFFF7BDBF000004486E220449426232
:101060000023A1F1DC000AF0F7BE000080000020A0
:1010700036D400081CB59FED251B51EC100B53EC2A
:10108000112BFFF792F9FFF7B1FA22A3010AD3E976
:101090000023CDE900238DF803108DF804000A2306
:1010A00001221EA11E4803F016FB642001F044FA41
:1010B0004FF47A74234605226946194803F00BFB66
:1010C000642001F039FA0A23012214A1144803F024
:1010D00002FB642001F030FA2346052269461048DD
:1010E00003F0F9FA642001F027FA0A2301220BA188
:1010F0000B4803F0F0FA642001F01EFA23460522A3
:101100006946074803F0E7FA1CBD00000000000034
:1011100000001040DD04010000000000610000003C
:1011200078380020FEE700009FED0B1B10B553EC54
:10113000112B51EC100BFFF738F99FED091B53EC05
:10114000112BFFF7A7F99FED081B53EC112BFFF7AD
:101150007DF841EC100B10BD0000000000002240A3
:1011600000000000000014400000000000004040AB
:10117000014801F0EBB8000068430020014801F08D
:10118000E5B80000B0430020014801F0DFB80000DE
:10119000F843002030B590F8444004F01C050124C9
:1011A000AC40056C6C60046863608368102B036856
:1011B00003D099600068C26030BD9A600068C16069
:1011C00030BD00002DE9F0473B4F0026B046BE740D
:1011D00001F020FA394802F0EBFF384803F041F8FB
:1011E0004FF47A79484601F0A7F9022207F15E012F
:1011F000324803F01FFA314803F005F809F092F87D
:1012000008F08AFF2E4808F0F3FF052308222DA1DD
:101210002A4803F060FA2E4C0025484601F08CF96C
:10122000B87C012801D00A2E42D987F81280294FB4
:101230001CE020782A2816D10026A0190078B8557D
:101240004FF0050001F078F9761C082EF5DB052338
:1012500008222049194803F03EFA052302221EA164
:10126000164803F038FA083445F100051B48604081
:101270002843DED101F06EF909F054F808F04CFF74
:10128000174808F0B5FF0523082216A10B4803F004
:1012900022FA642001F050F900228021144801F064
:1012A00075FBBDE8F04700220121124801F06EBB3A
:1012B000761CF6B2B1E7000000000020F0380020F4
:1012C000801E02085354415254494E47000000000A
:1012D00000600408400200200A0D000000400508DC
:1012E000604D020853544F5050494E4700000000D3
:1012F000000C0048001C004870474FF4005001F0FB
:101300004FBA0000124A117F1248012901D0032967
:101310000BD1036843F400630360036823F40063A4
:101320000360036843F400730360022901D00329BA
:101330000BD1016841F480510160016821F48051B2
:101340000160016841F480610160002010777047FE
:101350003836002000200240CA070B494A6902D0F3
:1013600022F4006201E042F400624A614A6960F3DB
:10137000CA024A61486940F002004861486940F485
:10138000803048617047000000200240044910B5D9
:101390004C6944F001044C610260436010BD0000E0
:1013A00000200240074B10B55C69402244F48024C1
:1013B0005C6172B608C908C0521E12F0FF02F9D172
:1013C00062B610BD0020024070B5054601F0E4FA97
:1013D0000646184C08E0681C06D001F0DDFA801BB8
:1013E000A84201D3032070BD2069C003F3D4216952
:1013F0004CF2FA300140A06900F00040084311D0DF
:101400000D494A6802434A60810F04D0A16900F087
:1014100040421143A161810002D020F04040206190
:10142000012070BD2069C00701D00120206100208B
:1014300070BD000000200240383600202DE9F04148
:1014400034480021354F80F8251080F826103249A5
:10145000334C3B4690F82520521C80F825200A7812
:10146000FF2A02D08031A142F4D190F825102D4DF1
:101470002D4E012901D011293ED9002290F8264095
:10148000641CE4B280F8264093F800C0BCF1FF0F62
:1014900001D1122C03D3521C8033122AEEDB012916
:1014A00005D0112913D9E0B2012804D024E0E2B21A
:1014B000012A0AD00DE00024385D2855305505205A
:1014C00001F03AF8641C662CF6DBBDE8F0810129D6
:1014D00012D1E0B201280FD9122C0DD2134800EB23
:1014E000C4170024385D28553055052001F024F834
:1014F000641C662CF6DBE8E70D48002400EBC117FE
:10150000385D28553055052001F016F8641C662C0E
:10151000F6DBDAE7000000200000040800080408F9
:101520000010040898410020C83500200007040876
:1015300000FF03082DE9F04138480021394FA0F899
:101540005410A0F856103649374C3A46B0F854308B
:101550005B1CA0F854300B78FF2B02D00831A1425D
:10156000F4D1B0F85410314D4FF48174A5F18806D0
:10157000012901D0A14241D34FF0000CB0F8563000
:101580005B1C9BB2A0F8563092F800E0BEF1FF0F52
:1015900001D1A34204D308320CF1010CA445EDDBC8
:1015A000012905D0A14213D398B2012804D025E027
:1015B0009AB2012A0AD00DE00024385D2855305532
:1015C000052000F0B9FF641C082CF6DBBDE8F081B3
:1015D000012913D198B2012810D9A3420ED2114883
:1015E000103800EBC3070024385D2855305505201E
:1015F00000F0A2FF641C082CF6DBE7E7084810386F
:1016000000EBC1070024385D28553055052000F057
:1016100093FF641C082CF6DBD8E7000000000020D4
:1016200000100408001804080020040838020020F4
:101630002DE9F04134480021354F80F8291080F819
:101640002A103249334C3B4690F82920521C80F82E
:1016500029200A78FF2A02D08031A142F4D190F8E3
:1016600029102D4D2D4E012901D011293ED90022DE
:1016700090F82A40641CE4B280F82A4093F800C035
:10168000BCF1FF0F01D1122C03D3521C8033122A5C
:10169000EEDB012905D0112913D9E0B2012804D0CD
:1016A00024E0E2B2012A0AD00DE00024385D28557A
:1016B0003055052000F040FF641C7E2CF6DBBDE8B1
:1016C000F081012912D1E0B201280FD9122C0DD2DC
:1016D000134800EBC4170024385D28553055052009
:1016E00000F02AFF641C7E2CF6DBE8E70D4800249E
:1016F00000EBC117385D28553055052000F01CFF60
:10170000641C7E2CF6DBDAE70000002000200408D1
:10171000002804080030040802420020283100207C
:1017200000270408001F04089FED0B1B10B553ECA5
:10173000112B51EC100BFEF72AFE9FED091B53EC09
:10174000112BFEF732FE9FED081B53EC112BFEF719
:10175000A1FE41EC100B10BD000000000000404055
:1017600000000000000014400000000000002240C3
:101770002DE9F047044690F850009AB00D464FF01E
:101780000008012813D0012084F85000304E206852
:101790004FF00009B0420ED12E4F0097384603F0AB
:1017A00027F98246206803F023F960B10EE0022099
:1017B0001AB0BDE8F087616D41F02001616584F8E1
:1017C00050900120F4E7BAF1000F09D0606D40F0AD
:1017D000200060654FF0010884F850904046E7E72C
:1017E0001D4829681D4A0029816840F61F7321F4AD
:1017F00060411BD094F830C041EA4C31D5F804C0A8
:1018000041EA0C018160B168BE6801F0010106F097
:1018100001069268314302F001021143DCD1AA684B
:101820002968114382689A4311430EE08160B168D0
:10183000BD6801F0010105F001059268294302F03D
:1018400001021143C8D1816899438160C4E7000057
:101850000000045000010450000304500002045032
:101860002DE9F84F00270446009790F85000DFF864
:10187000B8930D46B846012811D0012684F850606F
:10188000206803F0B1F860B1606D40F02000606541
:101890005FF0010784F85080384600F0DDB902207F
:1018A000FBE768680C23052812D8022807D0032814
:1018B00007D0042807D0052807D0062007E06B6072
:1018C00006E0122003E0182001E04FF48070686009
:1018D000D5E9002103EA9113206801F01F011844A3
:1018E0004FF01F0C0CFA01FC036BC2F3846223EA75
:1018F0000C038A4013430363206803F075F88246A3
:10190000206803F06DF85AEA00001DD1AA68296822
:10191000206803F079F820686969C268C2F3C102DF
:10192000520091402A69042A0FD000EB82002B68F4
:10193000DFF8F8C2026E03F0F84302EA0C020B4330
:101940001A4342F00041016672E0002103F042F8C0
:10195000400320684FF0000172D003F03BF890FA8A
:10196000A0F0B0FA80F1286842036ED090FAA0F09F
:10197000B0FA80F0814204D100221146206803F0C1
:1019800052F80121206803F025F8400320684FF049
:1019900001015DD003F01EF890FAA0F0B0FA80F1DA
:1019A0002868420359D090FAA0F0B0FA80F0814242
:1019B00004D100220121206803F035F802212068BB
:1019C00003F008F8400320684FF0020148D003F00C
:1019D00001F890FAA0F0B0FA80F12868420344D0F0
:1019E00090FAA0F0B0FA80F0814204D100220221E6
:1019F000206803F018F80321206802F0EBFF400391
:101A000020684FF0030133D002F0E4FF90FAA0F019
:101A1000B0FA80F1286842032FD090FAA0F0B0FA13
:101A200080F0814204D100220321206802F0FBFFF4
:101A30002068816811F0010F22D0ACE000E004E0E2
:101A400002F0C8FFC0F384618DE7C0F3846091E7C2
:101A500002F0C0FFC0F38461A2E7C0F38460A6E790
:101A600002F0B8FFC0F38461B7E7C0F38460BBE75E
:101A700002F0B0FFC0F38461CCE7C0F38460D0E72C
:101A80002A7B296850F8B03FC1F3120C23EA0C03FB
:101A900002F0180C664A22FA0CF20A401343036063
:101AA000E968494577D1286841031CD090FAA0F134
:101AB000B1FA81F1491C01F01F0109294FEA4031B7
:101AC00032D8002912D000BF90FAA0F1B1FA81F10A
:101AD00001F1010101F01F0106FA01F609D100BF71
:101AE000C0F3846109E0C0F38461E3E7C0F384617B
:101AF000EEE790FAA0F1B1FA81F101F1010101F0F4
:101B00001F0146EA816102D1C0F3846003E090FACC
:101B1000A0F0B0FA80F000F1010000F01F0000EB2F
:101B2000400041EA005132E000290ED090FAA0F1C5
:101B3000B1FA81F101F1010101F01F0106FA01F68C
:101B400006D100BFC0F3846106E0C0F38461F1E711
:101B500090FAA0F1B1FA81F101F1010101F01F0148
:101B600046EA816102D1C0F3846003E090FAA0F0FC
:101B7000B0FA80F000F1010000F01F002D4A00EBE8
:101B8000400002EB005041EA000141F00071AA68F8
:101B9000206802F039FF28482A6802423FF47AAEF2
:101BA00026488168264E274B274D01F0E071B2424E
:101BB0001CD10E021AD422689A4202D0AA427FF4A3
:101BC00069AE826841F4000122F0E0720A4382604B
:101BD0001E481F490068B0FBF1F000EB4000800098
:101BE00000E0401E00900028FBD153E6194EB2429F
:101BF00009D1CE0107D422689A4201D0AA42F4D179
:101C000041F080710AE06FF00045EA42EDD14A02EE
:101C1000EBD422689A42E8D141F48001826822F034
:101C2000E0720A43826035E600007F4000F0FF0367
:101C3000FFFF0700000020FE0000088000030450A2
:101C4000000052C700000450000204505836002023
:101C5000400D0300000084CB18BCBDE8E08F704746
:101C60007047000070B504000FD0606D40F00200B6
:101C7000606503212046FEF71DFF05002068C1684E
:101C800041F40011C16002D008E0012070BD20467F
:101C9000FEF7C4FF050001D101206065206841689E
:101CA0006FF30A014160216840F2FF70086020680C
:101CB000816821F0A04181602068816841F0005175
:101CC00081602068C168424A1140C1602068C168D3
:101CD00041F00041C160206801696FF30A010161B0
:101CE0002068416901F0404141612068816901F04B
:101CF000784181612068016A01F0F0210162206869
:101D0000416A01F0FF2141622068816A01F0FF21F0
:101D100081622068016B2F4A114001632068426B89
:101D20002C4910390A4042632068826B0A40826362
:101D30002068C16B40F2DF729143C16321680A6E73
:101D4000254802400A6621684A6E02404A662168B8
:101D50008A6E02408A662168CA6E0240CA6620689E
:101D600050F8A01F6FF312010160206850F8A41F03
:101D70006FF312010160206850F8B01F6FF3120179
:101D80000160206850F8B41F21F07F1101601348F2
:101D90008168134A01F00101926802F001021143C7
:101DA000104A926802F00102114305D1D0F80813DD
:101DB0000D4A1140C0F80813204600F0FDF800203D
:101DC000A065E0652066606584F85000284670BD17
:101DD00004800080300882E000F0FF03000004501F
:101DE0000001045000020450E01000FE70470000A3
:101DF000F8B54FF0000504002E46009502D0606D46
:101E000010B107E00120F8BD204600F0FBF8A66500
:101E100084F8506020688168C1F3407119B181680D
:101E20005B4A1140816020688168C1F3007179B913
:101E30008168584A114041F08051816056485749A5
:101E40000068B0FBF1F000E0401E00900028FBD1DC
:101E500020688168C1F3007141B9616D41F01001E2
:101E60006165A16D41F00101A165012502F0BCFD94
:101E7000616DC90600D430B1606D40F0100060653E
:101E800001252846F8BD606D20F4807040F0020006
:101E900060652068806810F0010F15D140488068A7
:101EA000404900F00100896801F0010108433E4902
:101EB000896801F00101084306D13C4960688A68DD
:101EC00022F47C1202438A60E168606B627E084300
:101ED000A16841EA4231084394F8201040EA0140E9
:101EE000012904D1A18C324A02EB41410843A16A85
:101EF00029B101F47071E26A014342EA01002268EB
:101F0000D1682C4B19400143D160206802F06CFD70
:101F10000646206802F064FD304315D1207E94F817
:101F200030102268800340EA4101D06844F2020385
:101F300098430843D06094F8380001280CD02068FA
:101F4000016921F001010161206901282068016B0C
:101F500021F00F0111D013E0D4E90F010843D4E9B7
:101F600011121143084321680A6940F2FC739A4335
:101F7000104340F001000861E6E7E269521E114398
:101F80000163606D20F0020040F00100606578E7B9
:101F9000C0FFFF5FC0FFFF7F58360020400D0300E9
:101FA00000000450000104500002045000030450DB
:101FB0000000FEFF07C0F0FF10B5044600680D49A1
:101FC000884215D10C48C16C21F40051C164112123
:101FD0000A4800F033FB1221880600F02FFB012194
:101FE000074800F02BFBE06CBDE8104000F060B942
:101FF00010BD00000000045000100240000800481E
:102000000004004870B5064600681F4986B0884243
:1020100038D11E48C16C41F40051C164C06C0B241E
:1020200000F400500590112000258DE8310069462C
:10203000174800F0C1FB12208DE831006946800688
:1020400000F0BAFB01208DE831006946114800F02C
:10205000B3FB124C1048C4E900058020A560C4E918
:102060000350800060618000A0612020C4E9070562
:10207000204600F0C9F918B1852109A003F0A2FE9D
:10208000F464A66206B070BD000004500010024067
:10209000000800480004004808000240684300208F
:1020A0002E2E2F5372632F73746D33326C34787805
:1020B0005F68616C5F6D73702E6300002DE9F04105
:1020C0000446334817468846806800F01F0520689C
:1020D00002F08AFC002859D194F85000012855D00C
:1020E000012084F85000002625B1052D02D0092DCD
:1020F00000D003E02046FEF7C5FD18B184F850601B
:10210000BDE8F081606D40F60161884340F4807065
:10211000606520492068884201D11F4900E00146DE
:10212000814200D01DB9606D20F480106065606D43
:10213000C00404D5A06D20F00600A06500E0A665EF
:10214000E16C1648C862E16C15480863E16C1548FB
:10215000486321681C20086084F85060206841684A
:1021600041F0100141602068C16841F00101C16087
:1021700021683B4642464031E06C00F0A5F92168F9
:102180008A68094B1A40121D8A60B9E70220B7E736
:10219000000304500001045000000450910B00089B
:1021A000130C0008F90B0008C0FFFF7F70B5044650
:1021B00090F85000012809D0012084F85000032134
:1021C0002046FEF777FC050002D027E0022070BD14
:1021D0002068C16821F00101C160E06C90F8251011
:1021E000022907D100F01FF8050003D0606D40F010
:1021F000400060652068416821F010014160204680
:1022000015B1FEF70BFD09E0FEF708FD050005D14D
:10221000606D20F4885040F001006065002084F873
:102220005000284670BDC8B101680A6822F00E024D
:102230000A6001680A6822F001020A6090F84410FE
:10224000036C01F01C02012101FA02F25A6080F8CD
:102250002510002180F8241008467047012070479F
:1022600010B590F825100024022903D00421C16381
:1022700001241AE001680A6822F00E020A6001686F
:102280000A6822F001020A6090F84410036C01F021
:102290001C02012101FA02F25A6080F82510002187
:1022A00080F82410816B01B18847204610BD0000E2
:1022B00030B590B101680A6822F001020A60204C32
:1022C000036814211F4AA34209D21F4C1C44B4FBCB
:1022D000F1F18900C0E910210BE0012030BD184C5C
:1022E00064421C44B4FBF1F189004164144908398B
:1022F00001640021196090F8443003F01C040123AC
:10230000A340046C6360046C0F23944202D152F822
:10231000A84F02E00A4AA032146890F8445005F031
:102320001C05AB409C431460C1620163416381633F
:10233000C16380F8251080F82410002030BD000013
:102340000804024000000240F8FFFDBFF0B4016C39
:102350000C6801680D6890F8442002F01C06042205
:1023600002FA06F3234211D06B070FD50B689B06C8
:1023700003D40B6823F004030B6090F8441001F0C1
:102380001C018A40016C4A60016B1DE0022303FAC4
:1023900006F727424FF0000C4FF0010218D0AF07AC
:1023A00016D50C68A40605D40C6824F00A040C6049
:1023B00080F8252090F8441001F01C018B40016C3E
:1023C0004B6080F824C0C16A00291AD0F0BC0847CD
:1023D0000823B340234214D02B0712D50B6823F0F7
:1023E0000E030B6090F84410036C01F01C0102FA1C
:1023F00001F15960C26380F8252080F824C0416B48
:10240000E2E7F0BC7047000070B568B12B4C036880
:1024100014212B4AA34209D22A4C1C44B4FBF1F1EB
:102420008900C0E910210BE0012070BD234C6442FB
:102430001C44B4FBF1F1890041642049083901646E
:10244000022180F825101C6847F6F0718C43D0E912
:1024500002152943D0E904563543294385692943A8
:10246000C5692943056A2943214319608168B1F58B
:10247000804F19D0036C0F21934202D152F8A83F2C
:1024800002E00E4AA032136890F8444004F01C04A5
:10249000A1408B43136090F84430416803F01C0363
:1024A00099401368194311600021C163012280F82B
:1024B000252080F82410084670BD00000804024062
:1024C00000000240F8FFFDBF70B5044690F82400FC
:1024D000002501280CD0012084F8240094F8256000
:1024E0000020012E06D084F824000225284670BD65
:1024F000022070BD022684F82560E063206806682B
:1025000026F0010606602046FEF744FE206B0028F8
:102510002068016802D041F00E0106E021F00401BC
:1025200001602068016841F00A01016020680168CB
:1025300041F001010160D9E770B5044600F02CFAC2
:102540000546601C00D0641C00F026FA401BA04227
:10255000FAD370BD0348416941F000414161002058
:1025600070470000002002402DE9FF5F254C064621
:10257000904620789A4601280BD0012020704CF21A
:10258000503B5846FEF720FF07004FF0000904D0EB
:102590002AE0022004B000F039B84846C4F804909C
:1025A000194D2968490504D5286820F48060286001
:1025B0000220207726B1012E09D0022E07D00CE090
:1025C000424653460198FEF7E1FE012612E04146DD
:1025D0000198FEF7E7FE022E0AD05846FEF7F4FEF9
:1025E0004FEA0007FEF78EFE84F800903846D1E7E8
:1025F0004FF480265846FEF7E7FE07466869B04369
:102600006861EFE7383600200020024030BCBDE8AA
:10261000C09F0000064900204A69002A07DA054ADF
:102620008A60054A8A604969002900DA01207047FA
:102630000020024023016745AB89EFCD2DE9F04F23
:10264000002301270F24DFF820A186E007FA03F614
:1026500016EA01027ED005684FEA43084FF0030CEA
:102660000CFA08FC45EA0C050560DD0800EB85085E
:10267000C346D8F820905D074FEAD56804FA08F5FC
:1026800029EA0509CBF82090856825EA0C058560C4
:102690004568B5434560C56825EA0C05C560C56A4F
:1026A000B543C56223F0030606EB0A05D5F808C05A
:1026B0009E07360F04FA06F909EA0C08B0F1904FAC
:1026C00006D0DFF8A8C0604505D14FF0010C27E027
:1026D0004FF0000C24E0DFF898C0604502D14FF0C5
:1026E000020C1DE0DFF88CC0604502D14FF0030CF6
:1026F00016E0DFF884C0604502D14FF0040C0FE013
:10270000DFF878C0604502D14FF0050C08E0DFF833
:1027100070C0604502D14FF0060C01E04FF0070C8D
:102720000CFA06FCC44517D1D5F808C02CEA090CF0
:10273000C5F808C0134D2E6896432E602D1D2E68D7
:1027400096432E602D1D2E6896432E602D1D2E68FB
:10275000964300E000E02E605B1C31FA03F27FF448
:1027600075AF00F011B800000000014000040048FF
:1027700000080048000C0048001000480014004801
:10278000001800480004014030BCBDE8C08F0000C4
:102790000249012081F8210070470000000000205C
:1027A000044910B50A68024202D00860FFF7F0FF42
:1027B00010BD0000140401402DE9F84FDFF898B176
:1027C00000234FF0010C4FF0030A4FF00F090BF1FB
:1027D000040EB9E00CFA03F4224070D04D68022DCB
:1027E00001D0122D0ED1DD0800EB8508D8F820505D
:1027F0005E07F70E09FA07F6B5430E69BE402E4391
:10280000C8F8206007685E0091F804800AFA06F5AF
:1028100008F00308AF4308FA06F848EA0708C0F8CA
:1028200000804F68012F05D0022F03D0112F01D057
:10283000122F13D1D0F80880CF6828EA0508B740D6
:1028400047EA08078760D0F804800F7928EA04086F
:10285000C7F300179F4047EA08074760D1F8048094
:102860006FEA0807BF0706D1C76AA743C8F3C004C9
:102870009C403C43C462C468AC438D68B54025436A
:10288000C5604C68E4005ED5344C256E45F001050A
:102890002566246E23F0030504F001040094304CF7
:1028A0002E19B4689D072F0F09FA07F5AC43B0F154
:1028B000904F05D02B4DA84204D101251CE042E0E9
:1028C000002519E0284DA84201D1022514E0274D2A
:1028D000A84201D103250FE0254DA84201D10425CE
:1028E0000AE0244DA84201D1052505E0224DA84269
:1028F00001D1062500E00725BD402543B560DBF882
:1029000000405D464E689443F60300D514432C60A6
:10291000DEF8004075464E689443B60300D5144374
:102920002C600D4D08352C684E689443F60200D596
:1029300014432C60084D0C352C684E689443B60245
:1029400000D514432C605B1C0A6832FA03F57FF44F
:1029500041AF00F013B80000000401400010024035
:10296000000001400004004800080048000C004836
:1029700000100048001400480018004818BCBDE8CA
:10298000E08F0069084000D0012070470AB18161E2
:10299000704781627047000001480068704700007E
:1029A0003436002090F84120202A24D190F840208D
:1029B000012A20D0012280F84020242280F84120E2
:1029C0000268136823F0010313600268136823F49C
:1029D00080531360026813680B43136001680A6830
:1029E00042F001020A60202180F84110002180F8A5
:1029F0004010084670470220704790F84120202A76
:102A000022D190F84020012A1ED0012280F84020D7
:102A1000242280F841200268136823F00103136028
:102A20000268136823F4706343EA012111600168AE
:102A30000A6842F001020A60202180F8411000215A
:102A400080F84010084670470220704710B5040017
:102A500013D0242084F841002068016821F001018E
:102A60000160204600F02AFA0020606484F84100EA
:102A700044F8300FA074207410BD012010BD000078
:102A800070B5040004D094F84100002510B106E0B0
:102A9000012070BD84F84050204600F025FA242023
:102AA00084F841002068016821F00101016060683C
:102AB000216820F0706008612068816821F400417D
:102AC0008160E0680128A06807D040F404402168D4
:102AD0008860E068022803D006E040F40040F6E792
:102AE00021684FF40060486020684168114A114332
:102AF00041602068C16821F40041C160D4E904014B
:102B00000843A16940EA01202168C860D4E90701AF
:102B10000843216808602068016841F001010160F4
:102B20006564202084F84100256384F84250002029
:102B300070BD0000008000022DE9FC47002604461D
:102B4000019690F841001F469246894620287ED182
:102B500020688069C043000479D594F840000128BA
:102B600075D0012084F84000242084F84100666478
:102B70004FF02008E068012809D029F4544040F4BF
:102B8000205021684860FFF707FF05460DE03149F6
:102B900049EA010030490840F3E7781C05D0FFF707
:102BA000FBFE401BB84219D8C7B121688869896902
:102BB000C0F34010C1F300110843EED020688069D3
:102BC0003B46C043C0064FF000024FF020012046B4
:102BD000009517D501F042FE68BB09E084F84180FA
:102BE00054F8440F40F0200044F80409267022E015
:102BF0002168C1F81C8084F8418084F8406000207E
:102C000000F02CB801F02AFEA8B921681020C86194
:102C10002168C1F81C800198504512D12068416894
:102C200041F4804141603B4600222021204600952E
:102C300001F014FE10B10120E2E708E02168C1F8BC
:102C40001C800198401C0190504593D3C6E7022098
:102C5000D6E7000000200002FF2300020CBCBDE804
:102C6000F08700002DE9F84F044690F84100DDF8A8
:102C700028A01F4690468B4620287ED194F840001D
:102C800001287AD0012084F84000FFF785FE06462F
:102C9000012200901923D103204601F0DFFDE0BBA3
:102CA000222084F84100102084F842000025656449
:102CB000C4F8248067856563618D3148FF274FF034
:102CC00080784FF00079FF2903D927853A46009094
:102CD00039E0618D218500903AE05946204601F0A7
:102CE000A7FD13E001F0E6FDB8B92068406A616A0B
:102CF0000870606A401C6062208D401E80B2208592
:102D0000618D491E6185618D01B168B1608D32466A
:102D1000002851462046E5D100E002E001F00CFE1B
:102D2000D0B1012000F030B8534600228021204667
:102D3000009601F093FD0028F3D1608DFF2804D99F
:102D400027853A4600954346C7E7608D2085009564
:102D500094F828204B46C0E721682020C8612168EC
:102D60004A68084B1A404A6084F8410084F842508F
:102D700084F840500020D5E7FFE70220D2E70000AA
:102D80000024008000E800FE18BCBDE8E08F0000D1
:102D90002DE9F84F044690F84100DDF828A01F46C1
:102DA00090468B4620287ED194F8400001287AD0A6
:102DB000012084F84000FFF7EFFD06460122009055
:102DC0001923D103204601F049FDE0BB212084F8FE
:102DD0004100102084F8420000256564C4F8248076
:102DE00067856563618D3148FF274FF080784FF02C
:102DF0000079FF2903D927853A46009039E0618D93
:102E0000218500903AE05946204601F011FD13E07B
:102E100001F0B8FDB8B9606A216800788862606A1C
:102E2000401C6062608D401E6085208D401E80B217
:102E30002085618D01B168B1608D32460028514610
:102E40002046E5D100E002E001F076FDD0B101209E
:102E500000F030B85346002280212046009601F051
:102E6000FDFC0028F3D1608DFF2804D927853A4660
:102E700000954346C7E7608D2085009594F828208B
:102E80004B46C0E721682020C86121684A68084B8A
:102E90001A404A6084F8410084F8425084F8405057
:102EA0000020D5E7FFE70220D2E7000000200080E5
:102EB00000E800FE18BCBDE8E08F0000006807498C
:102EC000884209D10648816D21F4001181654FF4D3
:102ED00040710448FFF7B2BB704700000054004047
:102EE000001002400004004800B500680E4987B099
:102EF000884217D14FF440700090122001900120B9
:102F00000290032003900420049069460748FFF7CD
:102F100053FC0748816D41F400118165806D00F418
:102F20000010059007B000BD0054004000040048A8
:102F30000010024002480168491C0160704700000F
:102F40003436002010B50024032000F099F800204A
:102F500000F008F808B1012401E000F01BF8204659
:102F600010BD000070B5054609484FF47A71002481
:102F70000068B0FBF1F001F0EFF808B1012404E0C3
:102F800000222946501E00F05BF8204670BD00006C
:102F9000583600201E4808B5016E41F00101016657
:102FA000016E01F001010091816D41F08051816558
:102FB000806D00F080500090032000F061F8002246
:102FC00011466FF00B0000F03BF8002211466FF045
:102FD0000A0000F035F8002211466FF0090000F0F9
:102FE0002FF800221146501F00F02AF80022114647
:102FF000101F00F025F800221146901E00F020F866
:103000000022BDE808401146501E00F019B800002B
:103010000010024000F01F02012191404009800091
:1030200000F1E020C0F88011704700F01F0201217C
:1030300091404009800000F1E020C0F80011704785
:10304000F0B40E4B1B680C46C3F30223C3F1070513
:10305000042D00D90425191D072901D2002300E001
:10306000DB1E012606FA05F1491E214099409E40CB
:10307000761E16403143F0BC01F00ABF0CED00E0B3
:10308000064900F0070208684FF6FF03184040EABF
:103090000220034A10430860704700000CED00E076
:1030A0000000FA051649B0F5007F0868C0F341201A
:1030B00009D0022805D0086820F4C06040F4806080
:1030C0000860002070470128FBD0086820F4C06029
:1030D00040F4007008600B483222006850430A4AEE
:1030E000B0FBF2F0401C00E0401E4A69520501D5D9
:1030F0000028F9D148694005E3D503207047000056
:10310000007000405836002040420F00024801681D
:1031100041F4804101607047007000400A490A682C
:1031200022F007020A6009490A6842F004020A60B4
:10313000012807D040BF20BF20BF086820F004004E
:103140000860704730BFF8E70070004010ED00E005
:103150000B490A6822F00702521C0A6009490A68F2
:1031600042F004020A60012807D040BF20BF20BF00
:10317000086820F004000860704730BFF8E70000DE
:103180000070004010ED00E00248006800F4C060EC
:1031900070470000007000400248016841F48071EF
:1031A0000160704700700040B0F5804F084601D0C4
:1031B000FFF7B4BFFFF7CCBF2DE9F84F0446002757
:1031C0000088E54D3E46010504F1200B1DD5606EDB
:1031D00078B1B0F5800F11D0B0F5000F04D0B0F584
:1031E000400F22D001270FE0E86840F48030E8600B
:1031F0001BE00021201D01F05DFE03E00021584688
:1032000001F0EEFE070010D03E462088C00426D50F
:10321000A06EC0B1B0F1807F1AD0B0F1007F0DD0A8
:10322000B0F1407F19D0012718E0D5F88800616E11
:1032300020F440000843C5F88800E6E7E86840F459
:103240008030E86009E00021201D01F033FE03E03A
:103250000021584601F0C4FE0746F7B13E462068FB
:1032600080033AD5A86D4FF00008C00009D4A86DBE
:1032700040F08050A865A86D4FF0010800F0805024
:103280000090DFF8D8A2DAF8001041F48071CAF893
:103290000010FFF781FB814610E0D5F88800A16E91
:1032A00020F040700843C5F88800D8E7FFF774FBAA
:1032B000A0EB0900022801D9032705E0DAF8000095
:1032C000C005F3D5002F7CD04FEA0706B8F1000FF8
:1032D00003D0A86D20F08050A8652078C00707D0E3
:1032E000D5F88800A16B20F003000843C5F88800DA
:1032F0002078800707D5D5F88800E16B20F00C0016
:103300000843C5F888002078400707D5D5F888001D
:10331000216C20F030000843C5F8880020780007B1
:1033200007D5D5F88800616C20F0C0000843C5F8C7
:1033300088002078C00607D5D5F88800A16C20F455
:1033400040700843C5F888002078800607D5D5F876
:103350008800E16C20F440600843C5F888002088AC
:10336000800507D5D5F88800E16D20F4402008439A
:10337000C5F888002088400507D5D5F88800216E5B
:1033800020F440100843C5F888002078400607D58F
:10339000D5F88800216D20F440500843C5F8880016
:1033A0002078000607D5D5F88800616D20F44040EC
:1033B0000843C5F888002088C00509D5D5F88800DD
:1033C00000E01CE0A16D20F440300843C5F88800FF
:1033D00020884FF0006780044FF080684FD5D5F803
:1033E0008800E16E20F040600843C5F88800E06E78
:1033F000B8423CD1E86840F48010E8603FE0D5F87E
:10340000900010F4407015D0D4F88410814211D08F
:10341000D5F89000D5F8901020F4407041F4803138
:10342000C5F89010D5F8901021F48031C5F89010AF
:10343000C5F89000C00710D0FFF7AEFA074641F27A
:10344000883906E0FFF7A8FAC11B494501D90326D0
:103450003CE7D5F890008007F4D5D5F89000D4F873
:10346000841020F440700843C5F890002EE74045D2
:1034700005D10121201D01F01DFD00B10646206887
:10348000000317D5D5F88800216F20F0406008436D
:10349000C5F88800206FB84204D1E86840F4801075
:1034A000E86007E0404505D10121201D01F002FD43
:1034B00000B106462068400317D5D5F88800616F33
:1034C00020F040600843C5F88800606FB84204D11E
:1034D000E86840F48010E86007E0404505D101212C
:1034E000201D01F0E7FC00B10646208840041AD5F3
:1034F000D5F88800A16F20F040500843C5F8880037
:10350000A06FB0F1805F03D0B0F1005F05D00AE09A
:103510000221201D01F0CEFC03E00221584601F0FB
:103520005FFD00B106462088000407D5D5F8880065
:10353000E16F20F080400843C5F888002068C00390
:1035400007D555F8880FD4F8801020F000400843C4
:103550002860304600F004B80010024000700040BF
:1035600018BCBDE8E08F00002DE9F0470F460500CC
:1035700058D03F4E306800F00700B84209D230689A
:1035800020F0070038433060306800F00700B84290
:1035900048D12878374CC0072CD06868032811D050
:1035A000022812D0216898B1490500293ADAA168A9
:1035B00021F003010143A160FFF7EEF9804641F2DB
:1035C000883910E021688901EFE721688903ECE779
:1035D0008907EAE7FFF7E0F9A0EB0801494502D9BE
:1035E0000320BDE8F087A068696800F00C00B0EB2C
:1035F000810FEFD12878800705D5A068A96820F051
:10360000F0000843A060306800F00700B8420BD912
:10361000306820F0070038433060306800F0070061
:10362000B84201D00120DCE72878400705D5A06822
:10363000E96820F4E0600843A0602878000706D518
:10364000A068296920F4605040EAC100A06000F041
:1036500041F8A168084AC1F30311515C01F01F0150
:10366000C84006490860BDE8F0470020FFF77ABC73
:10367000002002400010024040840208583600201A
:103680000148006870470000583600200548064988
:1036900000688968054AC1F30221515C01F01F01ED
:1036A000C84070475836002000100240808402084D
:1036B0000548064900688968054AC1F3C221515C82
:1036C00001F01F01C840704758360020001002402A
:1036D0008084020870B52549002318468A68CC68A2
:1036E00012F00C0204F00306214C4FEA640509D0E5
:1036F0000C2A05D0042A26D0082A00D1284670BDFD
:10370000012E10D10B681B0704D4D1F89430C3F3F9
:10371000032302E00B68C3F30313164E56F823305D
:103720007AB10C2AEBD1C86800F00302C868C0F374
:103730000210401C022A08D0032A09D0B3FBF0F083
:1037400008E0184670BD204670BDB4FBF0F001E003
:10375000B5FBF0F0CA68C968C2F306225043C1F352
:103760004161491C4900B0FBF1F070BD00100240FE
:103770000024F400508402082DE9F84305007CD0B1
:10378000FD4CA06800F00C06E06800F00307287804
:10379000C00661D576B10C2E01D1012F0AD0A869DF
:1037A0000028206878D040F001002060FFF7F4F88E
:1037B000804659E02068800702D5A8690028DED03D
:1037C000286A2168090703D5216801F0F00104E0A7
:1037D000D4F89410F02202EA1111884215D901F0B0
:1037E00083FC002849D1206840F008002060206850
:1037F000296A20F0F000084320606068E96920F43D
:103800007F4040EA0120606015E0206840F0080039
:1038100020602068296A20F0F0000843206060687A
:10382000E96920F47F4040EA01206060286A01F0E5
:103830005BFC0028D6D1FFF74DFFA168CF4AC1F34A
:103840000311515C01F01F01C840CD490860002000
:10385000FFF788FB00287DD12FE000BFFFF79CF821
:10386000A0EB0800022876D820688007F6D52068EB
:1038700040F008002060206801E0BBE00CE0296A0D
:1038800020F0F000084320606068E96920F47F4080
:1038900040EA0120606010E020F001002060FFF7A6
:1038A0007BF8804606E000BFFFF776F8A0EB080043
:1038B0000228D8D820688007F6D42878C00740D0DE
:1038C000082E18D00C2E01D1032F14D06868B0F543
:1038D000803F17D0B0F5A02F206817D020F480309B
:1038E0002060206820F4802020606868E0B1FFF745
:1038F00053F8804614E02068800322D568680028C9
:1039000078D01EE0206840F48030EDE740F480205D
:103910002060F7E7FFF740F8A0EB08006428A2D882
:1039200020688003F6D50CE0FFF736F8804605E006
:10393000FFF732F8A0EB0800642894D820688003D1
:10394000F6D4287880073BD5042E11D00C2E04D154
:10395000022F01E036E1A1E00AD0E86800282068E3
:103960001ED040F480702060FFF716F807460CE088
:10397000206840050CD5E8680028C1D008E000BFE9
:10398000FFF70AF8C01B022893D820684005F7D536
:103990006068297C20F0F85040EA016060600FE028
:1039A00020F480702060FEF7F7FF074605E000BFB7
:1039B000FEF7F2FFC01B022870D820684005F7D43C
:1039C0002878000729D568690028D4F8940012D017
:1039D00040F00100C4F89400FEF7DEFF074604E063
:1039E000FEF7DAFFC01B022858D8D4F894008007ED
:1039F000F6D512E0EDE020F00100C4F89400FEF7E7
:103A0000CBFF074605E000BFFEF7C6FFC01B02283C
:103A100044D8D4F894008007F6D42878400768D5B5
:103A2000A06D0027C00008D4A06D40F08050A065B4
:103A3000A06D012700F08050009052480168C90530
:103A400012D40168814641F480710160FEF7A4FF41
:103A5000804605E0FEF7A0FFA0EB080002281DD875
:103A6000D9F80000C005F5D5A868012817D00528A9
:103A7000D4F8900018D020F00100C4F89000D4F8D9
:103A8000900020F0040000BFC4F89000A86841F244
:103A90008839D0B1FEF780FF804611E06BE0D4F8A2
:103AA000900040F00100EFE740F00400C4F89000FF
:103AB000F5E700BFFEF770FFA0EB080149455AD8B3
:103AC000D4F890008007F5D50EE0FEF765FF80463C
:103AD00006E000BFFEF760FFA0EB0801494570D883
:103AE000D4F890008007F5D41FB1A06D20F080506D
:103AF000A065A86AF0B30C2E6BD00228206820F0D5
:103B00008070206004D0206810F0205F47D04AE029
:103B1000FEF742FF064604E0FEF73EFF801B022848
:103B20004FD820688001F7D4286BE96A000110386B
:103B30000843696BAA6B0902120941EA4241084332
:103B4000A98F114A490802EB4151084395F84010EA
:103B50004908120102EB41610843E060206840F02F
:103B600080702060E06840F08070E060FEF714FF35
:103B7000054610E02BE024E00010024040840208DB
:103B800058360020007000400000E0FFFEF704FF00
:103B9000401B022815D820688001F7D517E0E0689F
:103BA00020F00300E060E0680B490840E060FEF7A9
:103BB000F3FE054608E000BFFEF7EEFE401B0228BC
:103BC00002D90320BDE8F88320688001F4D40020E6
:103BD000F8E70120F6E70000FFFFEEFE2DE9F047D1
:103BE000044690F8200001281ED0012684F82060A9
:103BF000022084F821002168CA20486221685320ED
:103C000048622068816821F4806181602068816851
:103C100021F480418160FEF7BFFE054600274FF08A
:103C2000FF084FF47A7911E00220BDE8F08700BF69
:103C3000FEF7B2FE401B484508D92168C1F8248030
:103C4000032084F8210084F82070EEE72068C06823
:103C50004007EDD52168C1F8248084F8216084F8FC
:103C600020700020E1E700002DE9F74F044690F8AE
:103C700020008B4601281CD04FF0010884F82080DA
:103C8000022084F821002168CA204862206853215C
:103C90004162206880684FF0000540054FF0FF0644
:103CA0004FF0030A4FF47A790FD5FEF775FE0746F9
:103CB00007E0022000F054B8FEF76EFEC01B484536
:103CC00019D82068C0684007F6D42068816821F4BC
:103CD000806181602068C16801F0800161F49061B9
:103CE000C160FEF759FE07460DE000BFFEF754FE27
:103CF000C01B484507D92068466284F821A084F893
:103D000020500320D6E72068C0684007EED5216820
:103D1000C1F814B021688868029A20F007001043A7
:103D200088600E48016841F4801101600B4808303A
:103D3000016841F4801101602068816841F480418C
:103D400081602068816841F48061816020684662FA
:103D500084F8218084F820500020ABE70004014063
:103D60001EBCBDE8E08F00000249012081F822005E
:103D7000704700000000002010B50B4904464FF4C6
:103D8000801008602068C168490508D5C16801F045
:103D9000800161F49061C1602046FFF7E5FF0120DA
:103DA00084F8210010BD00001404014010B5006823
:103DB0000B4641680D480140080CD870C1F304243B
:103DC0005C7001F03F049C70C1F34231197052B92C
:103DD00001F012FAD870587801F00EFA58709878FD
:103DE00001F00AFA9870002010BD00003FFFFF00AC
:103DF00010B50B460168896A596001680969C1F309
:103E00000E019960006801680D480140C1F305404A
:103E10001870C1F306245C7001F07F049C70890D5A
:103E2000D97052B901F0E8F91870587801F0E4F946
:103E30005870987801F0E0F99870002010BD0000EB
:103E40007F7F7F002DE9F04104004FF0010553D042
:103E500094F82100002528B9002084F8200020468D
:103E600000F050F8022084F821002168CA2048623E
:103E7000216853204862204601F0D4F9FF26042728
:103E800018BB206881681E4A1140816021688868DB
:103E90006268A369104322691A431043886021684D
:103EA000E068086120680169228941EA02410161F4
:103EB0002068C16821F08001C160206880688006A8
:103EC00009D4204600F020F928B12068466284F821
:103ED0002170012510E02068C16C21F00301C1644C
:103EE0006169E06908432168CA6C1043C8642068AE
:103EF0004662012084F821002846BDE8F0810000D8
:103F0000BFFF8FFF10B50068094988420FD10948EB
:103F100050F8901F41F4004101600022012103206C
:103F2000FFF78EF8BDE810400320FFF77EB810BD04
:103F300000280040001002402DE9F047044690F8A8
:103F400020000B46012820D04FF0010984F8209072
:103F5000022084F82100DAB19878D97840EA014546
:103F600058781978000240EA413005432168CA2098
:103F70004862216853204862204601F053F9002628
:103F8000FF274FF0040860BB1AE00220BDE8F0876D
:103F90005878C10603D500F0EF000A305870D87881
:103FA00001F033F90504587801F02FF945EA0025AE
:103FB000987801F02AF90543187845EA4035D5E7A5
:103FC00010480540206845602068C16821F08001E4
:103FD000C1602068806880060BD4204600F094F809
:103FE00038B12068476284F8218084F8206001207D
:103FF000CCE72068476284F8219084F82060002094
:10400000C4E700003FFFFF002DE9F047044690F8A9
:10401000200092460D46012815D04FF0010884F883
:104020002080022084F821002168CA20486221688B
:1040300053204862204601F0F5F8FF274FF00409AD
:104040000026E8BB02E00220BDE8F0872068BAF154
:10405000000F80684FEA406005D0002817DA287802
:1040600001F0CAF814E0002800DBEE70287801F0B7
:10407000CCF80304687801F0C8F843EA0023A87874
:1040800001F0C3F80343E87843EA80500AE0EE7099
:10409000A8782978EA7840EA01406978090241EA7B
:1040A00082510843174908402168086020688168E8
:1040B00021F480218160D5E903010843216800E0F3
:1040C0000FE08A68104388602068C16821F0800191
:1040D000C1602068806880060BD4204600F014F888
:1040E00038B12068476284F8219084F8206001206C
:1040F000AAE72068476284F8218084F820600020C5
:10410000A2E700007F7F7F0070B504460068C168A9
:1041100021F0A001C160FEF73FFC05464FF47A761E
:1041200007E000BFFEF738FC401BB04201D9032076
:1041300070BD2068C0688006F4D5002070BD4FF0C7
:10414000E0210428086903D020F0040008617047CA
:1041500040F00400FAE7704710B5401EB0F1807FD0
:1041600001D3012010BD4FF0E02460610F216017E2
:1041700000F08EFE0020A06107202061002010BD0D
:1041800010B5FFF7E8FF10BD90F8701001290CD0B2
:10419000012180F8701001688A6822F400028A60A8
:1041A000002180F870100846704702207047704761
:1041B00070B504460068016821F4907101602068C0
:1041C000816821F001018160206881684FF000055D
:1041D000490609D5816821F040018160E06E18B17F
:1041E0008563E06EFEF71FF8A4F85A5021680F208F
:1041F00008622068018B41F008010183202084F8C7
:104200007200002070BD90F87010012907D00121C4
:1042100080F8701090F87110212902D006E0022079
:10422000704701688A6842F080028A6090F87210D4
:10423000222911D102680821116201680A6842F43A
:1042400080720A6001688A6842F001028A6001682F
:104250008A6842F040028A60002180F870100846A7
:10426000704710B5044690F8710021280ED12068DF
:10427000816809060AD5816821F080018160A06EFD
:1042800008B1FDF7D0FF204601F0E7F994F872007D
:1042900022280ED12068816849060AD5816821F05C
:1042A00040018160E06E08B1FDF7BDFF204601F0DE
:1042B000C4F9002010BD70B504001AD0242084F881
:1042C00071002068016821F001010160206800256B
:1042D00005602068456020688560204600F0E4F8AD
:1042E000656784F8715084F8725084F8705000202B
:1042F00070BD012070BD70472DE9F0410268044691
:10430000D0691168936810F00F0F4FF000055BD073
:1043100003F0010601F49077374369D0C70707D04F
:10432000CF0505D501271762626F42F0010262676F
:10433000820708D5DA0706D0276802223A62626F40
:1043400042F004026267420708D5DA0706D0236804
:1043500004221A62626F42F00202626702070AD503
:1043600001F02002324306D0236808221A62626FED
:1043700042F008026267626F002A32D0800605D5DB
:10438000880603D5216E09B120468847606F000773
:1043900003D420688068400625D5204601F04DF9F9
:1043A00020688168490619D5816821F04001816043
:1043B000E06E98B120498163E06EFDF751FF00285F
:1043C0000FD0E06E816B06E0860611D58E060FD504
:1043D000216E1EE02046BDE8F04108472046FFF769
:1043E0008AFFBDE8F0812046FFF785FF6567F8E7A3
:1043F000C60209D55B0207D54FF480101062204633
:10440000BDE8F041FFF7D3BE030605D50B0603D583
:10441000616E0029DED1E4E74006E2D54806E0D52A
:104420001168204621F040011160202184F87110AC
:10443000656600F0A8F9D4E79555000810B50400AA
:1044400003D094F8710010B107E0012010BD0020E6
:1044500084F87000204600F059F8242084F8710098
:104460002068016821F001010160204601F0FEF89A
:104470000128EBD0606A10B1204600F0F9FF2068F7
:10448000416821F4904141602068816821F02A014F
:1044900081602068016841F0010101602046BDE8AB
:1044A000104001F049B8000010B50446134A0168F5
:1044B000134891420ED1016E21F4804101664FF400
:1044C000C0614FF09040FEF7B9F8E06EFDF7F0FEE6
:1044D00025200EE00B4A91420FD1816D21F400316D
:1044E000816560210848FEF7A9F8E06EFDF7E0FE5F
:1044F0002620BDE81040FEF78DBD10BD00380140FC
:104500000010024000440040000C00482DE9F04338
:1045100006463A4D03680024394802270321072242
:1045200087B04FF080084FF02009AB422FD1036EC7
:1045300043F480430366006E029400F480400590CB
:10454000CDE903124802CDE9000769464FF09040DB
:10455000FEF732F92C4D2B482860C5E90174C5E9F6
:1045600003486C61C5E9064928462C62FDF74CFFFB
:1045700020B14FF49A7125A001F024FCF5660022C9
:1045800011462520AE62FEF75BFD252031E0264D69
:10459000AB4230D1836D43F400338365806D029468
:1045A00000F400300590CDE903126020CDE900074A
:1045B00069461E48FEF700F912481D4D1430286068
:1045C000C5E90174C5E903486C61C5E90649284697
:1045D0002C62FDF719FF20B14FF4B0710BA001F070
:1045E000F1FBF566002211462620AE62FEF728FD9B
:1045F0002620FEF71AFD07B0BDE8F0830038014021
:104600000010024058000240B04300202E2E2F53CD
:1046100072632F73746D33326C3478785F68616CB9
:104620005F6D73702E63000000440040000C004872
:10463000F843002070B5044690F87200202839D164
:10464000A9B3A2B394F87000012833D0012084F8F4
:1046500070006165A4F8582000256567222084F861
:104660007200E16E14481346C862E16E1348086395
:10467000E16E13484863E06E8563666D21683246DB
:104680002431E06EFDF720FF84F870502068016847
:1046900041F4807101602068816841F0010181600E
:1046A0002068816841F040018160002070BDFFE713
:1046B0000120FBE70220F9E7F35500083156000816
:1046C000A955000802480121C278E038817470477A
:1046D000E000002070472DE9F843044690F871008F
:1046E0001F4616460D4620284BD1C5B1BEB194F8E1
:1046F0007000012845D0012084F870004FF00008B8
:10470000C4F87480212084F87100FEF745F9A4F8FC
:1047100050608146A4F852604FF4805615E00120A5
:10472000BDE8F8838021204601F0F0F8D8B9A068F0
:10473000B04201D12069C0B115F8010B216808858C
:10474000B4F85200401EA4F85200B4F852004B4690
:104750004FF0000200970028E4D14FF040012046BE
:1047600001F0D4F830B10320DAE735F8020BC0F3DA
:104770000800E3E7202084F8710084F870800020AE
:10478000CEE70220CCE77047FEE701688A69D24392
:10479000920701D400228A6200688169C943C9076F
:1047A00003D0816941F00101816170472DE9F04139
:1047B0000446006890460E468069C043C00633D464
:1047C0000025202720688069C043800615D5701C0D
:1047D000F8D0FEF7E1F8A0EB0800B04201D8002EB7
:1047E000F0D154F8440F40F0200044F804096770F9
:1047F000A57025700120BDE8F08121681020C861F6
:104800002068C7612046FFF7C0FF54F8440B416899
:10481000064A11404160206840F0040044F8200935
:104820006777A5772577E5E70020E4E700E800FE55
:10483000F0B50568059C68684FF48066064FC1F3C3
:10484000090106EA545641EA02413E431943B04386
:10485000214308436860F0BDFF63FF032DE9F04189
:104860001D4617460E460446DDF8188008E0681C11
:1048700006D0FEF791F8A0EB0800A8420BD855B17E
:104880002068806936EA000012D00020B842EED0DD
:104890000020BDE8F08154F8440F40F0200044F8B7
:1048A0000409202060700020A07020700120F0E733
:1048B0000120EBE72DE9F041002690460F46044623
:1048C000202525E0424639462046FFF76FFF78BB9A
:1048D00020688069C043800613D420688169C94379
:1048E000490701D4218DC1B9C56154F8440B416811
:1048F000104A1140416044F820696577A677267711
:1049000016E0FEF749F8A0EB0800B84208D83FB11E
:1049100020688069C0434007D4D40020BDE8F081FE
:1049200054F8440F40F0200044F8040965702670E4
:104930000120F3E700E800FE70B516460D46044678
:104940000DE0324629462046FFF730FF08B101202E
:1049500070BDFEF721F8801BA84207D835B120684A
:104960008069C0438006ECD4002070BD54F8440F29
:1049700040F0200044F80409202060700020A0705E
:104980002070E4E770B516460D4604460FE0324647
:1049900029462046FFF70AFF08B1012070BD681CB8
:1049A00005D0FDF7F9FF801BA84207D835B1206874
:1049B0008069C0438007EAD4002070BD54F8440FDA
:1049C00040F0200044F80409202060700020A0700E
:1049D0002070E2E700EB8100006E00F0F8407047C5
:1049E0008068C0F3C00070478068C0F380007047E3
:1049F0008068C0F380007047C06810F4406F01D039
:104A00000020704701207047042310B503EAD153FA
:104A10001844C1F3045107248C4043698A40A343DE
:104A20001343436110BD00EB8100016E21F0004192
:104A3000114301667047000010B532488AB0304912
:104A400001604FF440310024C0E901140121082223
:104A5000C460C0E90412047641760522C26180F880
:104A600020408462C46280F83010446380F838408B
:104A7000FDF7BEF900B1FEE706A922480694FCF74F
:104A800077FE00B1FEE72048009006200190072045
:104A900002907F2003900420CDE904046946194860
:104AA000FCF7DEFE00B1FEE7184800900C200190F4
:104AB00069461448FCF7D4FE00B1FEE714480090A4
:104AC0001220019069460F48FCF7CAFE00B1FEE7CC
:104AD000104800901820019069460A48FCF7C0FE73
:104AE00000B1FEE70C4800904FF4807001906946D9
:104AF0000448FCF7B5FE002800D0FEE70AB010BD60
:104B000000000450903700200200300440002019BB
:104B10000002B025002090360080F03E114808B514
:104B2000816C41F001018164806C002200F0010081
:104B3000009011460B20FEF783FA0B20FEF775FA62
:104B4000002211460F20FEF77BFA0F20FEF76DFAC8
:104B5000002211461020FEF773FABDE8084010202D
:104B6000FEF763BA001002402DE9F04F7A4887B093
:104B7000C16C41F01001C164C16C01F010010591DC
:104B8000C16C41F00401C164C16C01F004010591E4
:104B9000C16C41F08001C164C16C01F080010591DC
:104BA000C16C41F00101C164C16C01F001010591CA
:104BB000C16C41F00201C164C16C01F002010591B8
:104BC000C16C41F00801C164C06CDFF8908100F055
:104BD00008004FF480770590002239464046FDF7E3
:104BE000D5FEDFF87CA1002203215046FDF7CEFE62
:104BF0004FF0904B002249F6AC115846FDF7C6FE27
:104C0000DFF86091002246F698414846FDF7BEFE67
:104C1000012204214846FDF7B9FE01224FF47051EC
:104C20005148FDF7B3FE002210214F48FDF7AEFEBC
:104C3000012280214C48FDF7A9FE012280214B482A
:104C4000FDF7A4FE00224FF410714848FDF79EFEC8
:104C50004FF6FF600325CDE9000500246946029464
:104C60004046FDF7A9FD78010090414801900220DF
:104C7000029069463D48FDF79FFD01260095CDE96C
:104C80000164694650460394FDF796FDB81CCDE9D2
:104C90000005694602943548FDF78EFD0096CDE982
:104CA000015469465846FDF787FD4FF48470009023
:104CB000CDE90154694658460394FDF77DFD49F658
:104CC00004000090CDE90164694658460394FDF75D
:104CD00073FDA020CDE9000669465846CDE902459E
:104CE000FDF76AFD46F69C400090CDE901646946F7
:104CF00048460394FDF760FDCDE9007669464046DD
:104D0000CDE90245FDF758FD43F690400090CDE90E
:104D10000164694614480394FDF74EFD700200904B
:104D2000CDE90154694611480394FDF745FDC020C3
:104D30000090CDE9016469460C480394FDF73CFD01
:104D4000002211462820FEF77BF92820FEF76DF996
:104D500007B000F00FB8000000100240001000483B
:104D6000001C004800040048000C004800080048EF
:104D70000000111030BCBDE8C08F0000114810B514
:104D80000F4901601049416000210122C0E902126F
:104D9000016141618161C1610162FDF771FE00B194
:104DA000FEE700210748FDF7FDFD00B1FEE7002109
:104DB0000448FDF722FE002800D0FEE710BD0000E9
:104DC00000540040F43700205B3D3000114810B51E
:104DD0000F49016000217F22C0E90112FF22C0E9D2
:104DE000032141618161C161FFF72CF800B1FEE749
:104DF000002240F2F1310748FEF736FF00B1FEE72E
:104E0000054850F8941F41F40001016010BD0000F6
:104E10000028004040380020001002400C4810B527
:104E20000A4901604FF416514160002181600C2253
:104E3000C160C0E904128161C16101624162FFF792
:104E4000FDFA002800D0FEE710BD00000038014048
:104E5000783800200C4810B50A4901604FF4E13160
:104E60004160002181600C22C160C0E904128161AF
:104E7000C16101624162FFF7E1FA002800D0FEE75C
:104E800010BD000000440040F0380020FEE77047ED
:104E90000907090E002806DA00F00F0000F1E020F3
:104EA00080F8141D704700F1E02080F8001470476E
:104EB000704700002DE9F041444C05468846E06803
:104EC0000026810728680DD0E16801F003018142C6
:104ED00016D1A8B1E0686968C0F30210401C88428E
:104EE0000ED120E0012804D0022805D0032807D1E4
:104EF00008E02168890701E021684905002907DBEE
:104F000001265FE02168890302D421684903F5E79F
:104F1000E1686A686FF00F0321F0730103EB02127E
:104F200011430143E160206820F080602060FDF7BC
:104F300033FD074605E000BFFDF72EFDC01B02282C
:104F400037D820680001F7D4B8F1000F18D0B8F1B5
:104F5000010F1ED0287D4FF07E41400801EB4060DC
:104F6000A96840EA01202169194A114008432061DB
:104F7000206840F080602060FDF70EFD07461AE0D3
:104F8000A868E9680002090940EA41402169114A1C
:104F9000EBE7288A1049400801EB4050A96840EA35
:104FA000012021690D4AE0E7FDF7F6FCC01B02284D
:104FB00001D9032606E020680001F5D52069A9691A
:104FC000084320613046BDE8F08100000010024037
:104FD000FF80FFF9FF80FDFF0000E0FFFF809FFFE3
:104FE0002DE9F0413D4C06468846E06800258107E2
:104FF00030680DD0E16801F00301814216D1A8B1FB
:10500000E0687168C0F30210401C88420ED120E0B5
:10501000012804D0022805D0032807D108E0216820
:10502000890701E021684905002907DB012551E0D6
:105030002168890302D421684903F5E7E1687268B1
:105040006FF00F0321F0730103EB021211430143D0
:10505000E160206820F080502060FDF79DFC07464D
:1050600005E000BFFDF798FCC01B022829D8206886
:105070008000F7D4B8F1000F15D0307C4FF07E419E
:10508000400801EB4060B16840EA01206169144AC0
:10509000114008436061206840F080502060FDF7B7
:1050A0007BFC07460FE0B068F1680002090940EA9E
:1050B000414061690B4AEBE7FDF76EFCC01B02281B
:1050C00001D9032506E020688000F5D56069716983
:1050D000084360612846BDE8F081000000100240EE
:1050E000FF80FFF9FF80FDFFF8B51C4D0646002448
:1050F000A86DC00002D5FEF747F80DE0A86D40F09E
:105100008050A865A86D00F080500090FEF73CF834
:10511000A96D21F08051A965B0F5007F04D0802EE3
:1051200007D94FF003040AE0802E08D9A02E01D839
:1051300004E001D1022402E0702E00D101240848CD
:10514000016821F0070121430160006800F00700B9
:10515000A04201D00120F8BD0020F8BD001002409F
:105160000020024010B5012251031648FDF70EFC45
:10517000FA20FDF7E1F91448C17C012921D101246D
:105180001249C467002088760B5C8A7E401C1A4452
:10519000C0B28A761A28F7D364231B220B490C4825
:1051A000FFF799FA0A2301220AA10948FFF793FAA7
:1051B0000A23012208A10648FFF78DFA0248803031
:1051C000C46110BD0004004800000020A63100208A
:1051D000783800200A0000000D0000000448572223
:1051E000044942620023A1F1AE0006F035BE000082
:1051F0008000002052D50008010901EB810100F078
:105200000F0000EB4100C0B270470022014602E0EF
:105210000A39C9B2521C0A29FAD2100741EA1060B1
:105220007047000070B504460068C168490614D490
:105230004FF0FF31C160FDF7AFFB05464FF47A76C2
:1052400007E000BFFDF7A8FB401BB04201D90320D7
:1052500070BD2068C0684006F4D5002070BD000015
:105260000148FEF789BD000040380020704700006B
:1052700000B587B0002269461348FEF7B9FD002249
:1052800005A91148FEF792FD10482A21017000215E
:1052900041709DF8172082709DF81520C2709DF80E
:1052A000162002719DF8002042719DF80120827144
:1052B0009DF80220C271A0F50C700175034806F03C
:1052C0005DFE07B000BD0000403800203002002025
:1052D00070B586B00025214C2FE02A282CD1661904
:1052E0007078362828D1B078312825D10122694636
:1052F0001B48FEF77DFD012205A91948FEF756FD62
:105300009DF80000302101EB101200F00F00327107
:10531000303070719DF8010001EB101200F00F00A9
:10532000B2713030F0719DF8020001EB101100F005
:105330000F003172303070726D1C605D2428CCD14A
:105340000020014602E030381044491C625C242AE7
:10535000F9D16119487006B070BD0000C835002051
:105360004038002010B5FDF7E5FDBDE81040FEF720
:1053700007BF000070B5B8B0FDF70EFF214850F828
:10538000901F21F0180101600620012622900024C0
:105390003502249610202C94CDE9255022A8FEF742
:1053A000EBF900B1FEE70F20CDE934643390369479
:1053B000002133A83794FEF7D7F800B1FEE70F9429
:1053C0001148149400900E9421956846FDF7F4FE60
:1053D00000B1FEE74FF40070FDF764FE00B1FEE798
:1053E000FEF74EF94FF47A71B0FBF1F0FEF7B4FE20
:1053F0000420FEF7A4FE00221146501EFDF720FEF9
:1054000038B070BD00100240430002000D48016832
:1054100041F4700101600C48016841F00101016034
:10542000002181600268094B1A4002608214C26048
:10543000026822F48022026081610249C00380393F
:105440000860704788ED00E000100240FFFFF6EAB8
:10545000064882B0816D41F080518165806D00F019
:105460008050009002B0FDF751BE000000100240D5
:1054700090F82410C90706D001684A68836A22F4AC
:1054800000321A434A6090F82410890706D5016853
:105490004A68C36A22F480321A434A6090F82410A2
:1054A000490706D501684A68036B22F480221A4333
:1054B0004A6090F82410090706D501684A68436BD2
:1054C00022F400421A434A6090F82410C90606D517
:1054D00001688A68836B22F480521A438A6090F8CC
:1054E0002410890606D501688A68C36B22F400522D
:1054F0001A438A6090F82410490611D501684A6859
:10550000036C22F480121A434A60016CB1F5801FCB
:1055100006D101684A68436C22F4C0021A434A600B
:1055200090F82410090606D501684A68806C22F4B8
:10553000002202434A607047F8B5002604464667D9
:10554000FDF72AFA0546206800686FF07E470007DD
:1055500008D52B4600224FF400112046009700F09A
:10556000D5F960B92068006840070AD52B460022AB
:105570004FF480012046009700F0C8F908B10320DD
:10558000F8BD202084F8710084F8720084F87060FF
:105590000020F8BD10B5806A0021A0F85A10A0F8CC
:1055A0005210FEF7A8FE10BD70B5846A94F8710021
:1055B0000025212808D120688068000604D5A4F8B9
:1055C0005250204600F049F894F87200222808D181
:1055D00020688068400604D5A4F85A50204600F0A0
:1055E0002CF8606F40F0100060672046FEF783FEE5
:1055F00070BD10B50146806A09680968890614D42F
:105600000021A0F85A1001680A6822F480720A602A
:1056100001688A6822F001028A6001688A6822F0C3
:1056200040028A60202180F87210FFF74BF810BD0D
:1056300010B5806AFFF74EF810BD01680A6822F4C1
:1056400090720A6001688A6822F001028A60202153
:1056500080F8721000210166704701680A6822F024
:10566000C0020A60202180F8711070472DE9F041D6
:105670000446016880682369E66918436369102558
:10568000002733431843954A0B68954E3340034334
:105690000B6020684168E36821F440511943416080
:1056A0002168A069914201D0236A18438B6823F4D2
:1056B000306303438B608B4B21688B4899420DD13B
:1056C000D0F8880010F0030006D001285AD0022834
:1056D00056D0032859D157E0012556E0834B994213
:1056E0000BD1D0F8880010F00C0047D0042849D026
:1056F000082845D00C2848D146E07D4B99420BD173
:10570000D0F8880010F0300038D010283AD0202887
:1057100036D0302839D137E0764B99420BD1D0F8CA
:10572000880010F0C00029D040282BD0802827D036
:10573000C0282AD128E0704B99420ED1D0F88800B9
:1057400010F440701AD0B0F5807F1BD0B0F5007F08
:1057500016D0B0F5407F18D116E0914215D1D0F89F
:10576000880010F4406009D0B0F5806F0AD0B0F521
:10577000006F05D0B0F5406F07D105E0002504E0CB
:10578000022502E0042500E008255C4B00264FF4CA
:10579000004091423DD135B1022D07D0042D07D0F4
:1057A000082D10D107E0FDF771FF03E0184602E075
:1057B000FDF790FFA8B3626802EB4201814202D874
:1057C000B0EB023F01D9012775E0DFF834815DB10C
:1057D000022D0CD0042D13D0082DF4D1500829052A
:1057E000401846F1000105E0FDF750FF0AE05008BF
:1057F0004449F5E70023FAF7E3FCA0F5407156E0D1
:10580000FDF768FF6268010E030250081818714125
:10581000F0E7E1694FF6EF7881422FD1092DD2D21E
:1058200000E048E0DFE805F006092005230505054E
:105830002600C8E7FDF72AFF01E0FDF739FF410028
:10584000D4F8040001EB5001B1FBF0F080B2A0F1FC
:1058500010014145B7D84FF6F0710140C0F3420046
:1058600001432068C16026E027496068EAE7FDF748
:1058700031FFE4E74FF480316068E3E7092DA2D2FD
:10588000DFE805F006091E052205050525009AE753
:10589000FDF7FCFE01E0FDF70BFF0146606801EB40
:1058A000500100BFB1FBF0F080B2A0F11001414502
:1058B00089D82168C860266638466666BDE8F081EA
:1058C000606803EB5001EDE7FDF704FFE5E7616871
:1058D00000EB5100B0FBF1F0E6E700000080004073
:1058E000F369FFEF0038014000100240004400401F
:1058F00000480040004C0040005000400024F400EC
:10590000FFFC0F00000024F40048E8012DE9F041FD
:10591000984617460E460446069D1DE0681C1BD09F
:105920002DB1FDF739F8A0EB0800A84214D9206882
:10593000016821F4D07101602068816821F00101C3
:105940008160202084F8710084F87200002084F8BF
:1059500070000320BDE8F0812068C06936EA0000CD
:1059600004D00020B842D9D00020F3E70120F9E7A5
:105970000148FEF7C1BC0000783800200148FEF75E
:10598000BBBC0000F0380020FEE700002DE9F04726
:105990005C4D00205C4CDFF8748185F8230085F8AD
:1059A000240027464646FCF735FE594995F8230062
:1059B000401C85F8230038782A2802D180378F428E
:1059C000F4D1A94695F82300524D012801D01028A2
:1059D0006DD900234FEA090191F82420521CD2B25C
:1059E00081F8242037782A2F01D0112A03D15B1C9B
:1059F0008036112BF0DB012805D0102828D9D1B230
:105A0000012914D053E0D3B2012B23D1274600261D
:105A1000A8193946D0E900230020FCF7A5FD052090
:105A2000FCF78AFD08360837702EF1DB52E0474656
:105A30000026A8193946D0E900230020FCF794FD80
:105A40000520FCF779FD08360837702EF1DB41E0C0
:105A500001282CD1D1B2012929D9112A15D22E48D9
:105A60004FF0000600EBC21705EB06003946D0E9FF
:105A700000234FF00000FCF777FD0520FCF75CFDEC
:105A800008360837702EEFDB24E010D127460026B9
:105A9000A8193946D0E900230020FCF765FD052050
:105AA000FCF74AFD08360837702EF1DB12E0164984
:105AB000803901EBC0170026A8193946D0E9002328
:105AC0000020FCF751FD0520FCF736FD08360837AD
:105AD000702EF1DB0B4A99F82330012180324846C1
